{
  "_format": "hh-sol-artifact-1",
  "contractName": "BlockCredAI",
  "sourceName": "contracts/BlockCredAI.sol",
  "abi": [
    {
      "inputs": [],
      "stateMutability": "nonpayable",
      "type": "constructor"
    },
    {
      "inputs": [],
      "name": "AccessControlBadConfirmation",
      "type": "error"
    },
    {
      "inputs": [
        {
          "internalType": "address",
          "name": "account",
          "type": "address"
        },
        {
          "internalType": "bytes32",
          "name": "neededRole",
          "type": "bytes32"
        }
      ],
      "name": "AccessControlUnauthorizedAccount",
      "type": "error"
    },
    {
      "inputs": [
        {
          "internalType": "address",
          "name": "sender",
          "type": "address"
        },
        {
          "internalType": "uint256",
          "name": "tokenId",
          "type": "uint256"
        },
        {
          "internalType": "address",
          "name": "owner",
          "type": "address"
        }
      ],
      "name": "ERC721IncorrectOwner",
      "type": "error"
    },
    {
      "inputs": [
        {
          "internalType": "address",
          "name": "operator",
          "type": "address"
        },
        {
          "internalType": "uint256",
          "name": "tokenId",
          "type": "uint256"
        }
      ],
      "name": "ERC721InsufficientApproval",
      "type": "error"
    },
    {
      "inputs": [
        {
          "internalType": "address",
          "name": "approver",
          "type": "address"
        }
      ],
      "name": "ERC721InvalidApprover",
      "type": "error"
    },
    {
      "inputs": [
        {
          "internalType": "address",
          "name": "operator",
          "type": "address"
        }
      ],
      "name": "ERC721InvalidOperator",
      "type": "error"
    },
    {
      "inputs": [
        {
          "internalType": "address",
          "name": "owner",
          "type": "address"
        }
      ],
      "name": "ERC721InvalidOwner",
      "type": "error"
    },
    {
      "inputs": [
        {
          "internalType": "address",
          "name": "receiver",
          "type": "address"
        }
      ],
      "name": "ERC721InvalidReceiver",
      "type": "error"
    },
    {
      "inputs": [
        {
          "internalType": "address",
          "name": "sender",
          "type": "address"
        }
      ],
      "name": "ERC721InvalidSender",
      "type": "error"
    },
    {
      "inputs": [
        {
          "internalType": "uint256",
          "name": "tokenId",
          "type": "uint256"
        }
      ],
      "name": "ERC721NonexistentToken",
      "type": "error"
    },
    {
      "anonymous": false,
      "inputs": [
        {
          "indexed": true,
          "internalType": "address",
          "name": "owner",
          "type": "address"
        },
        {
          "indexed": true,
          "internalType": "address",
          "name": "approved",
          "type": "address"
        },
        {
          "indexed": true,
          "internalType": "uint256",
          "name": "tokenId",
          "type": "uint256"
        }
      ],
      "name": "Approval",
      "type": "event"
    },
    {
      "anonymous": false,
      "inputs": [
        {
          "indexed": true,
          "internalType": "address",
          "name": "owner",
          "type": "address"
        },
        {
          "indexed": true,
          "internalType": "address",
          "name": "operator",
          "type": "address"
        },
        {
          "indexed": false,
          "internalType": "bool",
          "name": "approved",
          "type": "bool"
        }
      ],
      "name": "ApprovalForAll",
      "type": "event"
    },
    {
      "anonymous": false,
      "inputs": [
        {
          "indexed": true,
          "internalType": "uint256",
          "name": "jobId",
          "type": "uint256"
        },
        {
          "indexed": true,
          "internalType": "address",
          "name": "employer",
          "type": "address"
        },
        {
          "indexed": true,
          "internalType": "address",
          "name": "employee",
          "type": "address"
        }
      ],
      "name": "JobSubmitted",
      "type": "event"
    },
    {
      "anonymous": false,
      "inputs": [
        {
          "indexed": true,
          "internalType": "uint256",
          "name": "jobId",
          "type": "uint256"
        },
        {
          "indexed": false,
          "internalType": "uint256",
          "name": "tokenId",
          "type": "uint256"
        }
      ],
      "name": "JobVerified",
      "type": "event"
    },
    {
      "anonymous": false,
      "inputs": [
        {
          "indexed": true,
          "internalType": "bytes32",
          "name": "role",
          "type": "bytes32"
        },
        {
          "indexed": true,
          "internalType": "bytes32",
          "name": "previousAdminRole",
          "type": "bytes32"
        },
        {
          "indexed": true,
          "internalType": "bytes32",
          "name": "newAdminRole",
          "type": "bytes32"
        }
      ],
      "name": "RoleAdminChanged",
      "type": "event"
    },
    {
      "anonymous": false,
      "inputs": [
        {
          "indexed": true,
          "internalType": "bytes32",
          "name": "role",
          "type": "bytes32"
        },
        {
          "indexed": true,
          "internalType": "address",
          "name": "account",
          "type": "address"
        },
        {
          "indexed": true,
          "internalType": "address",
          "name": "sender",
          "type": "address"
        }
      ],
      "name": "RoleGranted",
      "type": "event"
    },
    {
      "anonymous": false,
      "inputs": [
        {
          "indexed": true,
          "internalType": "bytes32",
          "name": "role",
          "type": "bytes32"
        },
        {
          "indexed": true,
          "internalType": "address",
          "name": "account",
          "type": "address"
        },
        {
          "indexed": true,
          "internalType": "address",
          "name": "sender",
          "type": "address"
        }
      ],
      "name": "RoleRevoked",
      "type": "event"
    },
    {
      "anonymous": false,
      "inputs": [
        {
          "indexed": true,
          "internalType": "address",
          "name": "from",
          "type": "address"
        },
        {
          "indexed": true,
          "internalType": "address",
          "name": "to",
          "type": "address"
        },
        {
          "indexed": true,
          "internalType": "uint256",
          "name": "tokenId",
          "type": "uint256"
        }
      ],
      "name": "Transfer",
      "type": "event"
    },
    {
      "inputs": [],
      "name": "DEFAULT_ADMIN_ROLE",
      "outputs": [
        {
          "internalType": "bytes32",
          "name": "",
          "type": "bytes32"
        }
      ],
      "stateMutability": "view",
      "type": "function"
    },
    {
      "inputs": [],
      "name": "EMPLOYER_ROLE",
      "outputs": [
        {
          "internalType": "bytes32",
          "name": "",
          "type": "bytes32"
        }
      ],
      "stateMutability": "view",
      "type": "function"
    },
    {
      "inputs": [
        {
          "internalType": "address",
          "name": "to",
          "type": "address"
        },
        {
          "internalType": "uint256",
          "name": "tokenId",
          "type": "uint256"
        }
      ],
      "name": "approve",
      "outputs": [],
      "stateMutability": "nonpayable",
      "type": "function"
    },
    {
      "inputs": [
        {
          "internalType": "address",
          "name": "owner",
          "type": "address"
        }
      ],
      "name": "balanceOf",
      "outputs": [
        {
          "internalType": "uint256",
          "name": "",
          "type": "uint256"
        }
      ],
      "stateMutability": "view",
      "type": "function"
    },
    {
      "inputs": [
        {
          "internalType": "uint256",
          "name": "tokenId",
          "type": "uint256"
        }
      ],
      "name": "getApproved",
      "outputs": [
        {
          "internalType": "address",
          "name": "",
          "type": "address"
        }
      ],
      "stateMutability": "view",
      "type": "function"
    },
    {
      "inputs": [
        {
          "internalType": "address",
          "name": "employee",
          "type": "address"
        }
      ],
      "name": "getEmployeeHistory",
      "outputs": [
        {
          "components": [
            {
              "internalType": "uint256",
              "name": "jobId",
              "type": "uint256"
            },
            {
              "internalType": "address",
              "name": "employer",
              "type": "address"
            },
            {
              "internalType": "address",
              "name": "employee",
              "type": "address"
            },
            {
              "internalType": "string",
              "name": "jobDetails",
              "type": "string"
            },
            {
              "internalType": "uint256",
              "name": "startDate",
              "type": "uint256"
            },
            {
              "internalType": "uint256",
              "name": "endDate",
              "type": "uint256"
            },
            {
              "internalType": "string",
              "name": "ipfsHash",
              "type": "string"
            },
            {
              "internalType": "uint256",
              "name": "tokenId",
              "type": "uint256"
            }
          ],
          "internalType": "struct BlockCredAI.JobRecord[]",
          "name": "",
          "type": "tuple[]"
        }
      ],
      "stateMutability": "view",
      "type": "function"
    },
    {
      "inputs": [
        {
          "internalType": "bytes32",
          "name": "role",
          "type": "bytes32"
        }
      ],
      "name": "getRoleAdmin",
      "outputs": [
        {
          "internalType": "bytes32",
          "name": "",
          "type": "bytes32"
        }
      ],
      "stateMutability": "view",
      "type": "function"
    },
    {
      "inputs": [
        {
          "internalType": "address",
          "name": "employer",
          "type": "address"
        }
      ],
      "name": "grantEmployerRole",
      "outputs": [],
      "stateMutability": "nonpayable",
      "type": "function"
    },
    {
      "inputs": [
        {
          "internalType": "bytes32",
          "name": "role",
          "type": "bytes32"
        },
        {
          "internalType": "address",
          "name": "account",
          "type": "address"
        }
      ],
      "name": "grantRole",
      "outputs": [],
      "stateMutability": "nonpayable",
      "type": "function"
    },
    {
      "inputs": [
        {
          "internalType": "bytes32",
          "name": "role",
          "type": "bytes32"
        },
        {
          "internalType": "address",
          "name": "account",
          "type": "address"
        }
      ],
      "name": "hasRole",
      "outputs": [
        {
          "internalType": "bool",
          "name": "",
          "type": "bool"
        }
      ],
      "stateMutability": "view",
      "type": "function"
    },
    {
      "inputs": [
        {
          "internalType": "address",
          "name": "owner",
          "type": "address"
        },
        {
          "internalType": "address",
          "name": "operator",
          "type": "address"
        }
      ],
      "name": "isApprovedForAll",
      "outputs": [
        {
          "internalType": "bool",
          "name": "",
          "type": "bool"
        }
      ],
      "stateMutability": "view",
      "type": "function"
    },
    {
      "inputs": [],
      "name": "name",
      "outputs": [
        {
          "internalType": "string",
          "name": "",
          "type": "string"
        }
      ],
      "stateMutability": "view",
      "type": "function"
    },
    {
      "inputs": [
        {
          "internalType": "uint256",
          "name": "tokenId",
          "type": "uint256"
        }
      ],
      "name": "ownerOf",
      "outputs": [
        {
          "internalType": "address",
          "name": "",
          "type": "address"
        }
      ],
      "stateMutability": "view",
      "type": "function"
    },
    {
      "inputs": [
        {
          "internalType": "bytes32",
          "name": "role",
          "type": "bytes32"
        },
        {
          "internalType": "address",
          "name": "callerConfirmation",
          "type": "address"
        }
      ],
      "name": "renounceRole",
      "outputs": [],
      "stateMutability": "nonpayable",
      "type": "function"
    },
    {
      "inputs": [
        {
          "internalType": "bytes32",
          "name": "role",
          "type": "bytes32"
        },
        {
          "internalType": "address",
          "name": "account",
          "type": "address"
        }
      ],
      "name": "revokeRole",
      "outputs": [],
      "stateMutability": "nonpayable",
      "type": "function"
    },
    {
      "inputs": [
        {
          "internalType": "address",
          "name": "from",
          "type": "address"
        },
        {
          "internalType": "address",
          "name": "to",
          "type": "address"
        },
        {
          "internalType": "uint256",
          "name": "tokenId",
          "type": "uint256"
        }
      ],
      "name": "safeTransferFrom",
      "outputs": [],
      "stateMutability": "nonpayable",
      "type": "function"
    },
    {
      "inputs": [
        {
          "internalType": "address",
          "name": "from",
          "type": "address"
        },
        {
          "internalType": "address",
          "name": "to",
          "type": "address"
        },
        {
          "internalType": "uint256",
          "name": "tokenId",
          "type": "uint256"
        },
        {
          "internalType": "bytes",
          "name": "data",
          "type": "bytes"
        }
      ],
      "name": "safeTransferFrom",
      "outputs": [],
      "stateMutability": "nonpayable",
      "type": "function"
    },
    {
      "inputs": [
        {
          "internalType": "address",
          "name": "operator",
          "type": "address"
        },
        {
          "internalType": "bool",
          "name": "approved",
          "type": "bool"
        }
      ],
      "name": "setApprovalForAll",
      "outputs": [],
      "stateMutability": "nonpayable",
      "type": "function"
    },
    {
      "inputs": [
        {
          "internalType": "address",
          "name": "employee",
          "type": "address"
        },
        {
          "internalType": "string",
          "name": "jobDetails",
          "type": "string"
        },
        {
          "internalType": "uint256",
          "name": "startDate",
          "type": "uint256"
        },
        {
          "internalType": "uint256",
          "name": "endDate",
          "type": "uint256"
        },
        {
          "internalType": "string",
          "name": "ipfsHash",
          "type": "string"
        }
      ],
      "name": "submitVerification",
      "outputs": [
        {
          "internalType": "uint256",
          "name": "",
          "type": "uint256"
        }
      ],
      "stateMutability": "nonpayable",
      "type": "function"
    },
    {
      "inputs": [
        {
          "internalType": "bytes4",
          "name": "interfaceId",
          "type": "bytes4"
        }
      ],
      "name": "supportsInterface",
      "outputs": [
        {
          "internalType": "bool",
          "name": "",
          "type": "bool"
        }
      ],
      "stateMutability": "view",
      "type": "function"
    },
    {
      "inputs": [],
      "name": "symbol",
      "outputs": [
        {
          "internalType": "string",
          "name": "",
          "type": "string"
        }
      ],
      "stateMutability": "view",
      "type": "function"
    },
    {
      "inputs": [
        {
          "internalType": "uint256",
          "name": "tokenId",
          "type": "uint256"
        }
      ],
      "name": "tokenURI",
      "outputs": [
        {
          "internalType": "string",
          "name": "",
          "type": "string"
        }
      ],
      "stateMutability": "view",
      "type": "function"
    },
    {
      "inputs": [
        {
          "internalType": "address",
          "name": "from",
          "type": "address"
        },
        {
          "internalType": "address",
          "name": "to",
          "type": "address"
        },
        {
          "internalType": "uint256",
          "name": "tokenId",
          "type": "uint256"
        }
      ],
      "name": "transferFrom",
      "outputs": [],
      "stateMutability": "nonpayable",
      "type": "function"
    },
    {
      "inputs": [
        {
          "internalType": "address",
          "name": "employee",
          "type": "address"
        },
        {
          "internalType": "uint256",
          "name": "jobId",
          "type": "uint256"
        }
      ],
      "name": "verifyEmployment",
      "outputs": [
        {
          "internalType": "bool",
          "name": "exists",
          "type": "bool"
        },
        {
          "internalType": "address",
          "name": "employer",
          "type": "address"
        },
        {
          "internalType": "string",
          "name": "jobDetails",
          "type": "string"
        },
        {
          "internalType": "uint256",
          "name": "startDate",
          "type": "uint256"
        },
        {
          "internalType": "uint256",
          "name": "endDate",
          "type": "uint256"
        },
        {
          "internalType": "string",
          "name": "ipfsHash",
          "type": "string"
        },
        {
          "internalType": "uint256",
          "name": "tokenId",
          "type": "uint256"
        }
      ],
      "stateMutability": "view",
      "type": "function"
    }
  ],
  "bytecode": "0x608060405234801562000010575f80fd5b506040518060400160405280601c81526020017f426c6f636b43726564414920456d706c6f796d656e74204261646765000000008152506040518060400160405280600581526020017f4243414942000000000000000000000000000000000000000000000000000000815250815f90816200008d919062000488565b5080600190816200009f919062000488565b505050620000b65f801b33620000bd60201b60201c565b506200056c565b5f620000d08383620001b960201b60201c565b620001af57600160065f8581526020019081526020015f205f015f8473ffffffffffffffffffffffffffffffffffffffff1673ffffffffffffffffffffffffffffffffffffffff1681526020019081526020015f205f6101000a81548160ff0219169083151502179055506200014b6200021d60201b60201c565b73ffffffffffffffffffffffffffffffffffffffff168273ffffffffffffffffffffffffffffffffffffffff16847f2f8788117e7eff1d82e926ec794901d17c78024a50270940304540a733656f0d60405160405180910390a460019050620001b3565b5f90505b92915050565b5f60065f8481526020019081526020015f205f015f8373ffffffffffffffffffffffffffffffffffffffff1673ffffffffffffffffffffffffffffffffffffffff1681526020019081526020015f205f9054906101000a900460ff16905092915050565b5f33905090565b5f81519050919050565b7f4e487b71000000000000000000000000000000000000000000000000000000005f52604160045260245ffd5b7f4e487b71000000000000000000000000000000000000000000000000000000005f52602260045260245ffd5b5f6002820490506001821680620002a057607f821691505b602082108103620002b657620002b56200025b565b5b50919050565b5f819050815f5260205f209050919050565b5f6020601f8301049050919050565b5f82821b905092915050565b5f600883026200031a7fffffffffffffffffffffffffffffffffffffffffffffffffffffffffffffffff82620002dd565b620003268683620002dd565b95508019841693508086168417925050509392505050565b5f819050919050565b5f819050919050565b5f620003706200036a62000364846200033e565b62000347565b6200033e565b9050919050565b5f819050919050565b6200038b8362000350565b620003a36200039a8262000377565b848454620002e9565b825550505050565b5f90565b620003b9620003ab565b620003c681848462000380565b505050565b5b81811015620003ed57620003e15f82620003af565b600181019050620003cc565b5050565b601f8211156200043c576200040681620002bc565b6200041184620002ce565b8101602085101562000421578190505b620004396200043085620002ce565b830182620003cb565b50505b505050565b5f82821c905092915050565b5f6200045e5f198460080262000441565b1980831691505092915050565b5f6200047883836200044d565b9150826002028217905092915050565b620004938262000224565b67ffffffffffffffff811115620004af57620004ae6200022e565b5b620004bb825462000288565b620004c8828285620003f1565b5f60209050601f831160018114620004fe575f8415620004e9578287015190505b620004f585826200046b565b86555062000564565b601f1984166200050e86620002bc565b5f5b82811015620005375784890151825560018201915060208501945060208101905062000510565b8683101562000557578489015162000553601f8916826200044d565b8355505b6001600288020188555050505b505050505050565b613792806200057a5f395ff3fe608060405234801561000f575f80fd5b5060043610610156575f3560e01c80636352211e116100c1578063a217fddf1161007a578063a217fddf14610412578063a22cb46514610430578063b88d4fde1461044c578063c87b56dd14610468578063d547741f14610498578063e985e9c5146104b457610156565b80636352211e1461030457806365e29c9b1461033457806370a082311461036457806391d148541461039457806392d6aafb146103c457806395d89b41146103f457610156565b80632426bb38116101135780632426bb381461022c578063248a9ca31461024a5780632f2ff15d1461027a57806331f191881461029657806336568abe146102cc57806342842e0e146102e857610156565b806301ffc9a71461015a57806306fdde031461018a578063081812fc146101a8578063095ea7b3146101d857806316853feb146101f457806323b872dd14610210575b5f80fd5b610174600480360381019061016f919061276f565b6104e4565b60405161018191906127b4565b60405180910390f35b6101926104f5565b60405161019f9190612857565b60405180910390f35b6101c260048036038101906101bd91906128aa565b610584565b6040516101cf9190612914565b60405180910390f35b6101f260048036038101906101ed9190612957565b61059f565b005b61020e60048036038101906102099190612995565b6105b5565b005b61022a600480360381019061022591906129c0565b6105f0565b005b6102346106ef565b6040516102419190612a28565b60405180910390f35b610264600480360381019061025f9190612a6b565b610713565b6040516102719190612a28565b60405180910390f35b610294600480360381019061028f9190612a96565b610730565b005b6102b060048036038101906102ab9190612957565b610752565b6040516102c39796959493929190612ae3565b60405180910390f35b6102e660048036038101906102e19190612a96565b610a1a565b005b61030260048036038101906102fd91906129c0565b610a95565b005b61031e600480360381019061031991906128aa565b610ab4565b60405161032b9190612914565b60405180910390f35b61034e60048036038101906103499190612995565b610ac5565b60405161035b9190612d33565b60405180910390f35b61037e60048036038101906103799190612995565b610e15565b60405161038b9190612d53565b60405180910390f35b6103ae60048036038101906103a99190612a96565b610ecb565b6040516103bb91906127b4565b60405180910390f35b6103de60048036038101906103d99190612dcd565b610f2f565b6040516103eb9190612d53565b60405180910390f35b6103fc611374565b6040516104099190612857565b60405180910390f35b61041a611404565b6040516104279190612a28565b60405180910390f35b61044a60048036038101906104459190612eae565b61140a565b005b61046660048036038101906104619190613014565b611420565b005b610482600480360381019061047d91906128aa565b611445565b60405161048f9190612857565b60405180910390f35b6104b260048036038101906104ad9190612a96565b6114ab565b005b6104ce60048036038101906104c99190613094565b6114cd565b6040516104db91906127b4565b60405180910390f35b5f6104ee8261155b565b9050919050565b60605f8054610503906130ff565b80601f016020809104026020016040519081016040528092919081815260200182805461052f906130ff565b801561057a5780601f106105515761010080835404028352916020019161057a565b820191905f5260205f20905b81548152906001019060200180831161055d57829003601f168201915b5050505050905090565b5f61058e826115d4565b506105988261165a565b9050919050565b6105b182826105ac611693565b61169a565b5050565b5f801b6105c1816116ac565b6105eb7ffc7c36207174f786648d2e624616a4b40e15fd7f0268b4e36af5057f0c43c835836116c0565b505050565b5f73ffffffffffffffffffffffffffffffffffffffff168273ffffffffffffffffffffffffffffffffffffffff1603610660575f6040517f64a0ae920000000000000000000000000000000000000000000000000000000081526004016106579190612914565b60405180910390fd5b5f610673838361066e611693565b6117aa565b90508373ffffffffffffffffffffffffffffffffffffffff168173ffffffffffffffffffffffffffffffffffffffff16146106e9578382826040517f64283d7b0000000000000000000000000000000000000000000000000000000081526004016106e09392919061312f565b60405180910390fd5b50505050565b7ffc7c36207174f786648d2e624616a4b40e15fd7f0268b4e36af5057f0c43c83581565b5f60065f8381526020019081526020015f20600101549050919050565b61073982610713565b610742816116ac565b61074c83836116c0565b50505050565b5f8060605f8060605f80600a5f8a81526020019081526020015f20604051806101000160405290815f8201548152602001600182015f9054906101000a900473ffffffffffffffffffffffffffffffffffffffff1673ffffffffffffffffffffffffffffffffffffffff1673ffffffffffffffffffffffffffffffffffffffff168152602001600282015f9054906101000a900473ffffffffffffffffffffffffffffffffffffffff1673ffffffffffffffffffffffffffffffffffffffff1673ffffffffffffffffffffffffffffffffffffffff16815260200160038201805461083c906130ff565b80601f0160208091040260200160405190810160405280929190818152602001828054610868906130ff565b80156108b35780601f1061088a576101008083540402835291602001916108b3565b820191905f5260205f20905b81548152906001019060200180831161089657829003601f168201915b5050505050815260200160048201548152602001600582015481526020016006820180546108e0906130ff565b80601f016020809104026020016040519081016040528092919081815260200182805461090c906130ff565b80156109575780601f1061092e57610100808354040283529160200191610957565b820191905f5260205f20905b81548152906001019060200180831161093a57829003601f168201915b5050505050815260200160078201548152505090508973ffffffffffffffffffffffffffffffffffffffff16816040015173ffffffffffffffffffffffffffffffffffffffff16146109de575f805f805f60405180602001604052805f81525092919060405180602001604052805f81525090975097509750975097509750975050610a0e565b60018160200151826060015183608001518460a001518560c001518660e001519750975097509750975097509750505b92959891949750929550565b610a22611693565b73ffffffffffffffffffffffffffffffffffffffff168173ffffffffffffffffffffffffffffffffffffffff1614610a86576040517f6697b23200000000000000000000000000000000000000000000000000000000815260040160405180910390fd5b610a9082826119b5565b505050565b610aaf83838360405180602001604052805f815250611420565b505050565b5f610abe826115d4565b9050919050565b60605f60095f8473ffffffffffffffffffffffffffffffffffffffff1673ffffffffffffffffffffffffffffffffffffffff1681526020019081526020015f20805480602002602001604051908101604052809291908181526020018280548015610b4d57602002820191905f5260205f20905b815481526020019060010190808311610b39575b505050505090505f815167ffffffffffffffff811115610b7057610b6f612ef0565b5b604051908082528060200260200182016040528015610ba957816020015b610b9661269e565b815260200190600190039081610b8e5790505b5090505f5b8251811015610e0a57600a5f848381518110610bcd57610bcc613164565b5b602002602001015181526020019081526020015f20604051806101000160405290815f8201548152602001600182015f9054906101000a900473ffffffffffffffffffffffffffffffffffffffff1673ffffffffffffffffffffffffffffffffffffffff1673ffffffffffffffffffffffffffffffffffffffff168152602001600282015f9054906101000a900473ffffffffffffffffffffffffffffffffffffffff1673ffffffffffffffffffffffffffffffffffffffff1673ffffffffffffffffffffffffffffffffffffffff168152602001600382018054610cb1906130ff565b80601f0160208091040260200160405190810160405280929190818152602001828054610cdd906130ff565b8015610d285780601f10610cff57610100808354040283529160200191610d28565b820191905f5260205f20905b815481529060010190602001808311610d0b57829003601f168201915b505050505081526020016004820154815260200160058201548152602001600682018054610d55906130ff565b80601f0160208091040260200160405190810160405280929190818152602001828054610d81906130ff565b8015610dcc5780601f10610da357610100808354040283529160200191610dcc565b820191905f5260205f20905b815481529060010190602001808311610daf57829003601f168201915b50505050508152602001600782015481525050828281518110610df257610df1613164565b5b60200260200101819052508080600101915050610bae565b508092505050919050565b5f8073ffffffffffffffffffffffffffffffffffffffff168273ffffffffffffffffffffffffffffffffffffffff1603610e86575f6040517f89c62b64000000000000000000000000000000000000000000000000000000008152600401610e7d9190612914565b60405180910390fd5b60035f8373ffffffffffffffffffffffffffffffffffffffff1673ffffffffffffffffffffffffffffffffffffffff1681526020019081526020015f20549050919050565b5f60065f8481526020019081526020015f205f015f8373ffffffffffffffffffffffffffffffffffffffff1673ffffffffffffffffffffffffffffffffffffffff1681526020019081526020015f205f9054906101000a900460ff16905092915050565b5f610f5a7ffc7c36207174f786648d2e624616a4b40e15fd7f0268b4e36af5057f0c43c83533610ecb565b610f99576040517f08c379a0000000000000000000000000000000000000000000000000000000008152600401610f90906131db565b60405180910390fd5b5f73ffffffffffffffffffffffffffffffffffffffff168873ffffffffffffffffffffffffffffffffffffffff1603611007576040517f08c379a0000000000000000000000000000000000000000000000000000000008152600401610ffe90613243565b60405180910390fd5b838510611049576040517f08c379a0000000000000000000000000000000000000000000000000000000008152600401611040906132ab565b60405180910390fd5b60075f81548092919061105b906132f6565b91905055505f600754905060085f815480929190611078906132f6565b91905055505f600854905061108d8a82611a9f565b5f6040518061010001604052808481526020013373ffffffffffffffffffffffffffffffffffffffff1681526020018c73ffffffffffffffffffffffffffffffffffffffff1681526020018b8b8080601f0160208091040260200160405190810160405280939291908181526020018383808284375f81840152601f19601f82011690508083019250505050505050815260200189815260200188815260200187878080601f0160208091040260200160405190810160405280939291908181526020018383808284375f81840152601f19601f82011690508083019250505050505050815260200183815250905080600a5f8581526020019081526020015f205f820151815f01556020820151816001015f6101000a81548173ffffffffffffffffffffffffffffffffffffffff021916908373ffffffffffffffffffffffffffffffffffffffff1602179055506040820151816002015f6101000a81548173ffffffffffffffffffffffffffffffffffffffff021916908373ffffffffffffffffffffffffffffffffffffffff160217905550606082015181600301908161123791906134da565b506080820151816004015560a0820151816005015560c082015181600601908161126191906134da565b5060e0820151816007015590505060095f8c73ffffffffffffffffffffffffffffffffffffffff1673ffffffffffffffffffffffffffffffffffffffff1681526020019081526020015f2083908060018154018082558091505060019003905f5260205f20015f90919091909150558a73ffffffffffffffffffffffffffffffffffffffff163373ffffffffffffffffffffffffffffffffffffffff16847f0300f43da48d1a2ff28b674c0e93bde232550a8629587c0c468b05eb7a3d51e460405160405180910390a4827f559b78ef5e632d9821e505fc8ccb96559941c3e5e0b619ff13b8ce9dff3c52278360405161135b9190612d53565b60405180910390a2829350505050979650505050505050565b606060018054611383906130ff565b80601f01602080910402602001604051908101604052809291908181526020018280546113af906130ff565b80156113fa5780601f106113d1576101008083540402835291602001916113fa565b820191905f5260205f20905b8154815290600101906020018083116113dd57829003601f168201915b5050505050905090565b5f801b81565b61141c611415611693565b8383611abc565b5050565b61142b8484846105f0565b61143f611436611693565b85858585611c95565b50505050565b6060611450826115d4565b505f61145a611e41565b90505f8151116114785760405180602001604052805f8152506114a3565b8061148284611e57565b6040516020016114939291906135e3565b6040516020818303038152906040525b915050919050565b6114b482610713565b6114bd816116ac565b6114c783836119b5565b50505050565b5f60055f8473ffffffffffffffffffffffffffffffffffffffff1673ffffffffffffffffffffffffffffffffffffffff1681526020019081526020015f205f8373ffffffffffffffffffffffffffffffffffffffff1673ffffffffffffffffffffffffffffffffffffffff1681526020019081526020015f205f9054906101000a900460ff16905092915050565b5f7f7965db0b000000000000000000000000000000000000000000000000000000007bffffffffffffffffffffffffffffffffffffffffffffffffffffffff1916827bffffffffffffffffffffffffffffffffffffffffffffffffffffffff191614806115cd57506115cc82611f21565b5b9050919050565b5f806115df83612002565b90505f73ffffffffffffffffffffffffffffffffffffffff168173ffffffffffffffffffffffffffffffffffffffff160361165157826040517f7e2732890000000000000000000000000000000000000000000000000000000081526004016116489190612d53565b60405180910390fd5b80915050919050565b5f60045f8381526020019081526020015f205f9054906101000a900473ffffffffffffffffffffffffffffffffffffffff169050919050565b5f33905090565b6116a7838383600161203b565b505050565b6116bd816116b8611693565b6121fa565b50565b5f6116cb8383610ecb565b6117a057600160065f8581526020019081526020015f205f015f8473ffffffffffffffffffffffffffffffffffffffff1673ffffffffffffffffffffffffffffffffffffffff1681526020019081526020015f205f6101000a81548160ff02191690831515021790555061173d611693565b73ffffffffffffffffffffffffffffffffffffffff168273ffffffffffffffffffffffffffffffffffffffff16847f2f8788117e7eff1d82e926ec794901d17c78024a50270940304540a733656f0d60405160405180910390a4600190506117a4565b5f90505b92915050565b5f806117b584612002565b90505f73ffffffffffffffffffffffffffffffffffffffff168373ffffffffffffffffffffffffffffffffffffffff16146117f6576117f581848661224b565b5b5f73ffffffffffffffffffffffffffffffffffffffff168173ffffffffffffffffffffffffffffffffffffffff1614611881576118355f855f8061203b565b600160035f8373ffffffffffffffffffffffffffffffffffffffff1673ffffffffffffffffffffffffffffffffffffffff1681526020019081526020015f205f82825403925050819055505b5f73ffffffffffffffffffffffffffffffffffffffff168573ffffffffffffffffffffffffffffffffffffffff161461190057600160035f8773ffffffffffffffffffffffffffffffffffffffff1673ffffffffffffffffffffffffffffffffffffffff1681526020019081526020015f205f82825401925050819055505b8460025f8681526020019081526020015f205f6101000a81548173ffffffffffffffffffffffffffffffffffffffff021916908373ffffffffffffffffffffffffffffffffffffffff160217905550838573ffffffffffffffffffffffffffffffffffffffff168273ffffffffffffffffffffffffffffffffffffffff167fddf252ad1be2c89b69c2b068fc378daa952ba7f163c4a11628f55a4df523b3ef60405160405180910390a4809150509392505050565b5f6119c08383610ecb565b15611a95575f60065f8581526020019081526020015f205f015f8473ffffffffffffffffffffffffffffffffffffffff1673ffffffffffffffffffffffffffffffffffffffff1681526020019081526020015f205f6101000a81548160ff021916908315150217905550611a32611693565b73ffffffffffffffffffffffffffffffffffffffff168273ffffffffffffffffffffffffffffffffffffffff16847ff6391f5c32d9c69d2a47ea670b442974b53935d1edc7fd64eb21e047a839171b60405160405180910390a460019050611a99565b5f90505b92915050565b611ab8828260405180602001604052805f81525061230e565b5050565b5f73ffffffffffffffffffffffffffffffffffffffff168373ffffffffffffffffffffffffffffffffffffffff1603611b2c575f6040517fa9fbf51f000000000000000000000000000000000000000000000000000000008152600401611b239190612914565b60405180910390fd5b5f73ffffffffffffffffffffffffffffffffffffffff168273ffffffffffffffffffffffffffffffffffffffff1603611b9c57816040517f5b08ba18000000000000000000000000000000000000000000000000000000008152600401611b939190612914565b60405180910390fd5b8060055f8573ffffffffffffffffffffffffffffffffffffffff1673ffffffffffffffffffffffffffffffffffffffff1681526020019081526020015f205f8473ffffffffffffffffffffffffffffffffffffffff1673ffffffffffffffffffffffffffffffffffffffff1681526020019081526020015f205f6101000a81548160ff0219169083151502179055508173ffffffffffffffffffffffffffffffffffffffff168373ffffffffffffffffffffffffffffffffffffffff167f17307eab39ab6107e8899845ad3d59bd9653f200f220920489ca2b5937696c3183604051611c8891906127b4565b60405180910390a3505050565b5f8373ffffffffffffffffffffffffffffffffffffffff163b1115611e3a578273ffffffffffffffffffffffffffffffffffffffff1663150b7a02868685856040518563ffffffff1660e01b8152600401611cf39493929190613658565b6020604051808303815f875af1925050508015611d2e57506040513d601f19601f82011682018060405250810190611d2b91906136b6565b60015b611daf573d805f8114611d5c576040519150601f19603f3d011682016040523d82523d5f602084013e611d61565b606091505b505f815103611da757836040517f64a0ae92000000000000000000000000000000000000000000000000000000008152600401611d9e9190612914565b60405180910390fd5b805160208201fd5b63150b7a0260e01b7bffffffffffffffffffffffffffffffffffffffffffffffffffffffff1916817bffffffffffffffffffffffffffffffffffffffffffffffffffffffff191614611e3857836040517f64a0ae92000000000000000000000000000000000000000000000000000000008152600401611e2f9190612914565b60405180910390fd5b505b5050505050565b606060405180602001604052805f815250905090565b60605f6001611e6584612331565b0190505f8167ffffffffffffffff811115611e8357611e82612ef0565b5b6040519080825280601f01601f191660200182016040528015611eb55781602001600182028036833780820191505090505b5090505f82602083010190505b600115611f16578080600190039150507f3031323334353637383961626364656600000000000000000000000000000000600a86061a8153600a8581611f0b57611f0a6136e1565b5b0494505f8503611ec2575b819350505050919050565b5f7f80ac58cd000000000000000000000000000000000000000000000000000000007bffffffffffffffffffffffffffffffffffffffffffffffffffffffff1916827bffffffffffffffffffffffffffffffffffffffffffffffffffffffff19161480611feb57507f5b5e139f000000000000000000000000000000000000000000000000000000007bffffffffffffffffffffffffffffffffffffffffffffffffffffffff1916827bffffffffffffffffffffffffffffffffffffffffffffffffffffffff1916145b80611ffb5750611ffa82612482565b5b9050919050565b5f60025f8381526020019081526020015f205f9054906101000a900473ffffffffffffffffffffffffffffffffffffffff169050919050565b808061207357505f73ffffffffffffffffffffffffffffffffffffffff168273ffffffffffffffffffffffffffffffffffffffff1614155b156121a5575f612082846115d4565b90505f73ffffffffffffffffffffffffffffffffffffffff168373ffffffffffffffffffffffffffffffffffffffff16141580156120ec57508273ffffffffffffffffffffffffffffffffffffffff168173ffffffffffffffffffffffffffffffffffffffff1614155b80156120ff57506120fd81846114cd565b155b1561214157826040517fa9fbf51f0000000000000000000000000000000000000000000000000000000081526004016121389190612914565b60405180910390fd5b81156121a357838573ffffffffffffffffffffffffffffffffffffffff168273ffffffffffffffffffffffffffffffffffffffff167f8c5be1e5ebec7d5bd14f71427d1e84f3dd0314c0f7b2291e5b200ac8c7c3b92560405160405180910390a45b505b8360045f8581526020019081526020015f205f6101000a81548173ffffffffffffffffffffffffffffffffffffffff021916908373ffffffffffffffffffffffffffffffffffffffff16021790555050505050565b6122048282610ecb565b6122475780826040517fe2517d3f00000000000000000000000000000000000000000000000000000000815260040161223e92919061370e565b60405180910390fd5b5050565b6122568383836124eb565b612309575f73ffffffffffffffffffffffffffffffffffffffff168373ffffffffffffffffffffffffffffffffffffffff16036122ca57806040517f7e2732890000000000000000000000000000000000000000000000000000000081526004016122c19190612d53565b60405180910390fd5b81816040517f177e802f000000000000000000000000000000000000000000000000000000008152600401612300929190613735565b60405180910390fd5b505050565b61231883836125ab565b61232c612323611693565b5f858585611c95565b505050565b5f805f90507a184f03e93ff9f4daa797ed6e38ed64bf6a1f010000000000000000831061238d577a184f03e93ff9f4daa797ed6e38ed64bf6a1f0100000000000000008381612383576123826136e1565b5b0492506040810190505b6d04ee2d6d415b85acef810000000083106123ca576d04ee2d6d415b85acef810000000083816123c0576123bf6136e1565b5b0492506020810190505b662386f26fc1000083106123f957662386f26fc1000083816123ef576123ee6136e1565b5b0492506010810190505b6305f5e1008310612422576305f5e1008381612418576124176136e1565b5b0492506008810190505b612710831061244757612710838161243d5761243c6136e1565b5b0492506004810190505b6064831061246a57606483816124605761245f6136e1565b5b0492506002810190505b600a8310612479576001810190505b80915050919050565b5f7f01ffc9a7000000000000000000000000000000000000000000000000000000007bffffffffffffffffffffffffffffffffffffffffffffffffffffffff1916827bffffffffffffffffffffffffffffffffffffffffffffffffffffffff1916149050919050565b5f8073ffffffffffffffffffffffffffffffffffffffff168373ffffffffffffffffffffffffffffffffffffffff16141580156125a257508273ffffffffffffffffffffffffffffffffffffffff168473ffffffffffffffffffffffffffffffffffffffff161480612563575061256284846114cd565b5b806125a157508273ffffffffffffffffffffffffffffffffffffffff166125898361165a565b73ffffffffffffffffffffffffffffffffffffffff16145b5b90509392505050565b5f73ffffffffffffffffffffffffffffffffffffffff168273ffffffffffffffffffffffffffffffffffffffff160361261b575f6040517f64a0ae920000000000000000000000000000000000000000000000000000000081526004016126129190612914565b60405180910390fd5b5f61262783835f6117aa565b90505f73ffffffffffffffffffffffffffffffffffffffff168173ffffffffffffffffffffffffffffffffffffffff1614612699575f6040517f73c6ac6e0000000000000000000000000000000000000000000000000000000081526004016126909190612914565b60405180910390fd5b505050565b6040518061010001604052805f81526020015f73ffffffffffffffffffffffffffffffffffffffff1681526020015f73ffffffffffffffffffffffffffffffffffffffff168152602001606081526020015f81526020015f8152602001606081526020015f81525090565b5f604051905090565b5f80fd5b5f80fd5b5f7fffffffff0000000000000000000000000000000000000000000000000000000082169050919050565b61274e8161271a565b8114612758575f80fd5b50565b5f8135905061276981612745565b92915050565b5f6020828403121561278457612783612712565b5b5f6127918482850161275b565b91505092915050565b5f8115159050919050565b6127ae8161279a565b82525050565b5f6020820190506127c75f8301846127a5565b92915050565b5f81519050919050565b5f82825260208201905092915050565b5f5b838110156128045780820151818401526020810190506127e9565b5f8484015250505050565b5f601f19601f8301169050919050565b5f612829826127cd565b61283381856127d7565b93506128438185602086016127e7565b61284c8161280f565b840191505092915050565b5f6020820190508181035f83015261286f818461281f565b905092915050565b5f819050919050565b61288981612877565b8114612893575f80fd5b50565b5f813590506128a481612880565b92915050565b5f602082840312156128bf576128be612712565b5b5f6128cc84828501612896565b91505092915050565b5f73ffffffffffffffffffffffffffffffffffffffff82169050919050565b5f6128fe826128d5565b9050919050565b61290e816128f4565b82525050565b5f6020820190506129275f830184612905565b92915050565b612936816128f4565b8114612940575f80fd5b50565b5f813590506129518161292d565b92915050565b5f806040838503121561296d5761296c612712565b5b5f61297a85828601612943565b925050602061298b85828601612896565b9150509250929050565b5f602082840312156129aa576129a9612712565b5b5f6129b784828501612943565b91505092915050565b5f805f606084860312156129d7576129d6612712565b5b5f6129e486828701612943565b93505060206129f586828701612943565b9250506040612a0686828701612896565b9150509250925092565b5f819050919050565b612a2281612a10565b82525050565b5f602082019050612a3b5f830184612a19565b92915050565b612a4a81612a10565b8114612a54575f80fd5b50565b5f81359050612a6581612a41565b92915050565b5f60208284031215612a8057612a7f612712565b5b5f612a8d84828501612a57565b91505092915050565b5f8060408385031215612aac57612aab612712565b5b5f612ab985828601612a57565b9250506020612aca85828601612943565b9150509250929050565b612add81612877565b82525050565b5f60e082019050612af65f83018a6127a5565b612b036020830189612905565b8181036040830152612b15818861281f565b9050612b246060830187612ad4565b612b316080830186612ad4565b81810360a0830152612b43818561281f565b9050612b5260c0830184612ad4565b98975050505050505050565b5f81519050919050565b5f82825260208201905092915050565b5f819050602082019050919050565b612b9081612877565b82525050565b612b9f816128f4565b82525050565b5f82825260208201905092915050565b5f612bbf826127cd565b612bc98185612ba5565b9350612bd98185602086016127e7565b612be28161280f565b840191505092915050565b5f61010083015f830151612c035f860182612b87565b506020830151612c166020860182612b96565b506040830151612c296040860182612b96565b5060608301518482036060860152612c418282612bb5565b9150506080830151612c566080860182612b87565b5060a0830151612c6960a0860182612b87565b5060c083015184820360c0860152612c818282612bb5565b91505060e0830151612c9660e0860182612b87565b508091505092915050565b5f612cac8383612bed565b905092915050565b5f602082019050919050565b5f612cca82612b5e565b612cd48185612b68565b935083602082028501612ce685612b78565b805f5b85811015612d215784840389528151612d028582612ca1565b9450612d0d83612cb4565b925060208a01995050600181019050612ce9565b50829750879550505050505092915050565b5f6020820190508181035f830152612d4b8184612cc0565b905092915050565b5f602082019050612d665f830184612ad4565b92915050565b5f80fd5b5f80fd5b5f80fd5b5f8083601f840112612d8d57612d8c612d6c565b5b8235905067ffffffffffffffff811115612daa57612da9612d70565b5b602083019150836001820283011115612dc657612dc5612d74565b5b9250929050565b5f805f805f805f60a0888a031215612de857612de7612712565b5b5f612df58a828b01612943565b975050602088013567ffffffffffffffff811115612e1657612e15612716565b5b612e228a828b01612d78565b96509650506040612e358a828b01612896565b9450506060612e468a828b01612896565b935050608088013567ffffffffffffffff811115612e6757612e66612716565b5b612e738a828b01612d78565b925092505092959891949750929550565b612e8d8161279a565b8114612e97575f80fd5b50565b5f81359050612ea881612e84565b92915050565b5f8060408385031215612ec457612ec3612712565b5b5f612ed185828601612943565b9250506020612ee285828601612e9a565b9150509250929050565b5f80fd5b7f4e487b71000000000000000000000000000000000000000000000000000000005f52604160045260245ffd5b612f268261280f565b810181811067ffffffffffffffff82111715612f4557612f44612ef0565b5b80604052505050565b5f612f57612709565b9050612f638282612f1d565b919050565b5f67ffffffffffffffff821115612f8257612f81612ef0565b5b612f8b8261280f565b9050602081019050919050565b828183375f83830152505050565b5f612fb8612fb384612f68565b612f4e565b905082815260208101848484011115612fd457612fd3612eec565b5b612fdf848285612f98565b509392505050565b5f82601f830112612ffb57612ffa612d6c565b5b813561300b848260208601612fa6565b91505092915050565b5f805f806080858703121561302c5761302b612712565b5b5f61303987828801612943565b945050602061304a87828801612943565b935050604061305b87828801612896565b925050606085013567ffffffffffffffff81111561307c5761307b612716565b5b61308887828801612fe7565b91505092959194509250565b5f80604083850312156130aa576130a9612712565b5b5f6130b785828601612943565b92505060206130c885828601612943565b9150509250929050565b7f4e487b71000000000000000000000000000000000000000000000000000000005f52602260045260245ffd5b5f600282049050600182168061311657607f821691505b602082108103613129576131286130d2565b5b50919050565b5f6060820190506131425f830186612905565b61314f6020830185612ad4565b61315c6040830184612905565b949350505050565b7f4e487b71000000000000000000000000000000000000000000000000000000005f52603260045260245ffd5b7f4e6f7420656d706c6f79657200000000000000000000000000000000000000005f82015250565b5f6131c5600c836127d7565b91506131d082613191565b602082019050919050565b5f6020820190508181035f8301526131f2816131b9565b9050919050565b7f496e76616c696420656d706c6f796565000000000000000000000000000000005f82015250565b5f61322d6010836127d7565b9150613238826131f9565b602082019050919050565b5f6020820190508181035f83015261325a81613221565b9050919050565b7f496e76616c6964206461746573000000000000000000000000000000000000005f82015250565b5f613295600d836127d7565b91506132a082613261565b602082019050919050565b5f6020820190508181035f8301526132c281613289565b9050919050565b7f4e487b71000000000000000000000000000000000000000000000000000000005f52601160045260245ffd5b5f61330082612877565b91507fffffffffffffffffffffffffffffffffffffffffffffffffffffffffffffffff8203613332576133316132c9565b5b600182019050919050565b5f819050815f5260205f209050919050565b5f6020601f8301049050919050565b5f82821b905092915050565b5f600883026133997fffffffffffffffffffffffffffffffffffffffffffffffffffffffffffffffff8261335e565b6133a3868361335e565b95508019841693508086168417925050509392505050565b5f819050919050565b5f6133de6133d96133d484612877565b6133bb565b612877565b9050919050565b5f819050919050565b6133f7836133c4565b61340b613403826133e5565b84845461336a565b825550505050565b5f90565b61341f613413565b61342a8184846133ee565b505050565b5b8181101561344d576134425f82613417565b600181019050613430565b5050565b601f821115613492576134638161333d565b61346c8461334f565b8101602085101561347b578190505b61348f6134878561334f565b83018261342f565b50505b505050565b5f82821c905092915050565b5f6134b25f1984600802613497565b1980831691505092915050565b5f6134ca83836134a3565b9150826002028217905092915050565b6134e3826127cd565b67ffffffffffffffff8111156134fc576134fb612ef0565b5b61350682546130ff565b613511828285613451565b5f60209050601f831160018114613542575f8415613530578287015190505b61353a85826134bf565b8655506135a1565b601f1984166135508661333d565b5f5b8281101561357757848901518255600182019150602085019450602081019050613552565b868310156135945784890151613590601f8916826134a3565b8355505b6001600288020188555050505b505050505050565b5f81905092915050565b5f6135bd826127cd565b6135c781856135a9565b93506135d78185602086016127e7565b80840191505092915050565b5f6135ee82856135b3565b91506135fa82846135b3565b91508190509392505050565b5f81519050919050565b5f82825260208201905092915050565b5f61362a82613606565b6136348185613610565b93506136448185602086016127e7565b61364d8161280f565b840191505092915050565b5f60808201905061366b5f830187612905565b6136786020830186612905565b6136856040830185612ad4565b81810360608301526136978184613620565b905095945050505050565b5f815190506136b081612745565b92915050565b5f602082840312156136cb576136ca612712565b5b5f6136d8848285016136a2565b91505092915050565b7f4e487b71000000000000000000000000000000000000000000000000000000005f52601260045260245ffd5b5f6040820190506137215f830185612905565b61372e6020830184612a19565b9392505050565b5f6040820190506137485f830185612905565b6137556020830184612ad4565b939250505056fea2646970667358221220bd82a97ddc688e1463198cfcdd27f0e98b193a934ecc520848630fe8dcfa712164736f6c63430008180033",
  "linkReferences": {},
  "deployedLinkReferences": {}
}